:020000040800F2
:10000000D0090020050100087F1700081916000814
:100010007D17000839030008591E00080000000081
:10002000000000000000000000000000431B00086A
:100030009104000800000000411B0008451B000857
:100040001F0100081F0100081F0100081F01000810
:100050001F0100081F0100081F0100081F01000800
:100060001F0100081F0100081F0100081F010008F0
:100070001F0100081F0100081F0100081F010008E0
:100080001F0100081F0100081F0100081F010008D0
:100090001F0100081F0100081F0100081F010008C0
:1000A0001F0100081F0100081F0100081F010008B0
:1000B000F11B00081F0100081F0100081F010008B4
:1000C0001F0100081F0100081F0100081F01000890
:1000D0001F010008411E00081F0100081F01000841
:1000E0001F0100081F0100081F010008DFF810D0E1
:1000F00000F088F80048004751220008AFF3008064
:10010000D00900200648804706480047FEE7FEE782
:10011000FEE7FEE7FEE7FEE7FEE7FEE7FEE7FEE7B7
:10012000A91B0008ED000008D2B201E000F8012B85
:10013000491EFBD270470022F6E710B513460A4667
:1001400004461946FFF7F0FF204610BD70B506467D
:1001500001F0B8FE046805460A220021304600F08E
:1001600018F82C6070BD30B50B46014600202022E7
:10017000012409E021FA02F59D4205D303FA02F5B4
:10018000491B04FA02F52844151EA2F10102F1DC14
:1001900030BD2DE9F04791460F46804604460026C3
:1001A00014F8015B2DB100F03FF80068405DC00716
:1001B000F6D12B2D02D02D2D18D0641E4A4639467B
:1001C000204600F035F827B13968A14201D1C7F8BF
:1001D000008071054FF002040BD54042002803DD7A
:1001E00001F070FE0460A007BDE8F08746F4806669
:1001F000E4E70028F8DA01F065FE04606FF00040E3
:10020000F2E70000064C074D06E0E06840F001030D
:1002100094E8070098471034AC42F6D3FFF76AFF22
:100220004033000860330008004870473C33000842
:100230002DE9F05F82460078002715468B460AF1CB
:100240000104B946302801D09DB113E014F8010B28
:100250000127782803D0582801D045B10AE00DB114
:10026000102D07D10027102514F8010B02E00825F6
:1002700000E00A250026B0460EE005FB080005FB5D
:1002800006F1012701EB10461FFA80F8B6F5803F12
:1002900000D3B94614F8010B294600F018F80028DD
:1002A000EBDABBF1000F05D00FB1641E00E054463D
:1002B000CBF80040B9F1000F06D001F003FE022197
:1002C0000160C81EBDE8F09F48EA0640FAE73A28F8
:1002D00000D2303820F02002412A01D3A2F13700A9
:1002E000884201D34FF0FF307047000070B50446DC
:1002F00000688168C943C9071CD1816821F00101E8
:10030000816000F06DFB05460FE000BF00F068FB68
:10031000401B022809D9A06A40F01000A062E06AE0
:1003200040F00100E062012070BD20688068C04399
:10033000C007EBD0002070BDFEE7000070B5144888
:100340000024016821F00F010160016841F00801FB
:1003500001600F4D083504E0641CE4B2012000F098
:1003600098F82868C00703D0642C09D3012070BD19
:10037000642CF1D3FAE7641CE4B2012000F089F8A0
:100380002868C00701D0FA2CF5D3002070BD00000A
:100390000008014070B500240F4D04E0641CE4B275
:1003A000012000F076F82868C00701D0642CF5D34E
:1003B000002404E0641CE4B2012000F06AF828681C
:1003C000C00701D1642CF5D3282000F062F828681A
:1003D000C00700D0012070BD0808014070B50020A2
:1003E00004464006050EFFF7D5FF641C2843E4B21F
:1003F000082CF6D370BD00002DE9FC410546002015
:100400000E460090019000F025F8FFF797FF0028B6
:100410001DD100244FEA0D07FFF7E0FF3855641C9B
:10042000E4B2052CF8D39DF800309DF801209DF82A
:1004300002109DF803009C180F183C449DF80470AE
:10044000BC4203D133707270297068700020BDE81F
:10045000FC8100000D4810B5016821F00F0101601A
:10046000016841F003010160084C0C34206820F061
:1004700001002060142000F026F8206840F0010000
:100480002060BDE810401E2000F003B800080140C5
:1004900070474FF0E02100228A6100EBC000486104
:1004A000086920F004000861086940F00100086153
:1004B0000869C30301D4C007FAD1086920F001001C
:1004C00008618A61704742F2283100FB01F24FF067
:1004D000E0214A6100228A610A6922F004020A616D
:1004E0000A6942F001020A610A69D20301D40028B4
:1004F000FAD1704770470000F8B50024009490F8D6
:1005000024202546012A12D0012280F824204A689E
:100510001F23072A0DD20668776B521E02EB820258
:1005200093409F430B6893401F43776319E0022079
:10053000F8BD06680D2A0AD2376BD21F02EB820281
:1005400093409F430B6893401F43376309E0F76A6A
:100550000D3A02EB820293409F430B6893401F4386
:10056000F7620A68072306680A2A0AD3F7680A3A74
:1005700002EB420293409F438B6893401F43F76016
:1005800008E0376902EB420293409F438B68934037
:100590001F4337610A68102A01D0112A20D1124B5B
:1005A00002689A4217D193681B0219D4936843F4E6
:1005B000000393600968102912D10C490C4A09689C
:1005C000B1FBF2F101EB8101490000E0491E00910D
:1005D0000029FBD104E0816A41F0200181620124FD
:1005E00080F824502046F8BD00240140200000205F
:1005F00040420F002DE9F0414FF0000704003D4656
:100600007ED0A06A002628B9E66284F824602046DD
:1006100000F07EF82046FFF769FEA16AC90600D403
:1006200020B1A06A40F01000A06269E0A16A21F444
:10063000885141F00201A1626268E169237B0A43AB
:1006400047EA43010A43A1684FF48077B94209D0D1
:10065000012907D05FF0000194F814C0BCF1010F2C
:1006600002D00AE03946F7E7F3B1A36A43F020036A
:10067000A362E36A43F00103E3622368D3F804C092
:100680002CF4694C4CEA010CC3F804C021688B6857
:10069000DFF870C003EA0C0313438B60A168B94212
:1006A0000BD0012909D00CE0DFF85CC0A3690CEB8A
:1006B00043330B4343F40061DFE7218A0D05A5F5C1
:1006C00080152168CB6A23F470032B43CB62216829
:1006D00089680E4B1940914208D1E662A16A21F067
:1006E000020141F00101A162BDE8F081A06A20F0A1
:1006F000020040F01000A062E06A40F00100E062F9
:100700000120F1E7FDF7E1FF00E0FFFFFE0E1FFF14
:1007100008B500680649884208D10648816941F455
:1007200000718161806900F40070009008BD0000D4
:10073000002401400010024010B590F82110002460
:10074000022903D00421816301243DE001680A6885
:1007500022F00E020A6001680A6822F001020A60B3
:100760001A4A0168914201D1012121E0174A14324D
:10077000914201D110211BE0144A2832914201D14B
:10078000891515E0114A3C32914201D189140FE0DC
:100790000E4A5032914202D14FF4803108E00B4AA8
:1007A0006432914202D14FF4801101E04FF0807128
:1007B000064A083A5160012180F82110002180F892
:1007C0002010416B01B18847204610BD080002404F
:1007D00070B5044600F004F90546601C02D00448D8
:1007E0000078044400F0FCF8401BA042FAD370BD2E
:1007F000140000202DE9F84FDFF8B891002409F12A
:10080000040A0AF1040B23460F270BF1040EC9E07A
:100810000125A5402A40AA427DD1674ED1F804C0E7
:10082000ACEB0608B44532D014DCBCF1030F3AD06F
:1008300009DCBCF1000F2AD0BCF1010F1CD0BCF1C7
:10084000020F31D11DE0BCF1110F17D0BCF1120F16
:100850002AD119E0B8F5881F19D006DCB8F5803F19
:1008600015D0B8F5801F1FD111E0B8F5001F0ED0CC
:10087000B8F5041F18D10AE0CB6815E0CB681B1D42
:1008800012E0CB6808330FE0CB680C330CE08B68C8
:100890002BB1012B4FF0080303D0456104E0042382
:1008A00002E0056100E00023FF2A01D8064601E0CE
:1008B00000F104064FEA840501D9A5F12005D6F818
:1008C000008007FA05FC28EA0C0803FA05F548EA57
:1008D0000508C6F800804D68ED0062D5374DAE6959
:1008E00046F00106AE61AD6924F0030605F001058E
:1008F0000095334D06EB050CDCF80850A607360FC3
:1009000007FA06F825EA0805DFF8B880404503D164
:100910004FF0000817E044E0DFF8AC80404502D11A
:100920004FF001080FE0DFF8A480404502D14FF0FE
:10093000020808E0DFF89880404502D14FF0030834
:1009400001E04FF0040808FA06F848EA0508CCF878
:1009500008804D68D9F80060ED034D4601D5164377
:1009600000E096432E604D68DAF80060AD0355460E
:1009700001D5164300E096432E604D68DBF8006019
:10098000ED025D4601D5164300E096432E604D68AA
:10099000DEF80060AD02754601D5164300E09643CF
:1009A0002E60641C0D682A46E5407FF431AFBDE837
:1009B000F88F0000000401400000111000100240F8
:1009C0000000014000080140000C014000100140FF
:1009D000001401400AB1016170470904FBE70000FF
:1009E00001488068704700001400002002488168B8
:1009F000027811448160704714000020074810B548
:100A0000016841F010010160032000F079F8002036
:100A100000F006F800F024F8002010BD002002408D
:100A200070B50D4D04464FF47A712878B1FBF0F0A3
:100A30000A490968B1FBF0F000F066FB48B9102CD8
:100A400007D200222146501E00F03AF800206C60C8
:100A500070BD012070BD00001400002020000020A7
:100A60000E4808B5816941F001018161816901F099
:100A700001010091C16941F08051C161C06900F07C
:100A800080500090042000F03BF80548416821F0B8
:100A9000E06141F00071416008BD000000100240BB
:100AA00000000140002809DB00F01F0201219140F5
:100AB0004009800000F1E020C0F8001170470000FC
:100AC000F0B40E4B1B680C46C3F30223C3F10705B9
:100AD000042D00D90425191D072901D2002300E0A7
:100AE000DB1E012606FA05F1491E214099409E4071
:100AF000761E16403143F0BC01F0D4B90CED00E095
:100B0000064900F0070208684FF6FF03184040EA64
:100B10000220034A10430860704700000CED00E01B
:100B20000000FA052DE9F84305460078354CC0076A
:100B300054D0E0690026C00008D4E06940F080503D
:100B4000E061E069012600F0805000902E480168C5
:100B5000C90512D40168804641F480710160FFF735
:100B60003FFF074605E000BFFFF73AFFC01B6428C0
:100B700023D8D8F80000C005F6D5206A10F44070DC
:100B800021D0A98801F4407181421CD0206A1F49FC
:100B9000012220F440700A6000220A602062C0072F
:100BA00011D0FFF71DFF074641F2883808E000BF6B
:100BB000FFF716FFC11B414502D90320BDE8F883AA
:100BC000206A8007F4D5206A696820F440700843E1
:100BD00020621EB1E06920F08050E0612878800733
:100BE00005D56068A96820F4404008436060287813
:100BF000C00605D56068E96820F48000084360609D
:100C00000020DBE700100240007000404004424238
:100C10002DE9F0470F46050061D0434E306800F0E3
:100C20000700B84209D2306820F00700384330602E
:100C3000306800F00700B84251D128683B4C81076A
:100C400012D5400703D5606840F4E0606060287802
:100C5000000703D5606840F4605060606068A96870
:100C600020F0F000084360602878C00728D068684A
:100C7000012810D02168022810D0890700292EDA17
:100C8000616821F0030101436160FFF7A9FE80461E
:100C900041F288390DE021688903EFE78901EDE72A
:100CA000FFF79EFEA0EB0801494502D90320BDE8ED
:100CB000F0876068696800F00C00B0EB810FEFD13D
:100CC000306800F00700B8420BD9306820F0070008
:100CD00038433060306800F00700B84201D001208E
:100CE000E5E72878400705D56068E96820F4E0600A
:100CF000084360602878000706D56068296920F4F9
:100D0000605040EAC100606000F038F86168084A4D
:100D1000C1F30311515CC8400649086006480068E9
:100D2000FFF77EFE0020C2E70020024000100240D4
:100D3000A0320008200000201800002004480549C7
:100D400000684968044AC1F30221515CC8407047F9
:100D50002000002000100240B0320008044805497D
:100D600000684968044AC1F3C221515CC840704719
:100D70002000002000100240B032000812A185B00F
:100D80000FC98DE80F0014A0144A00680490516840
:100D9000134801F00C03042B10D0082B0ED1C1F323
:100DA0008343C9031DF803000AD5516804AAC1F39F
:100DB0004041515C0A4A5043B0FBF1F005B0704726
:100DC00008494843FAE7000002030405060708093A
:100DD0000A0B0C0D0E0F1010010200000010024053
:100DE00000127A0000093D002DE9F84F040070D090
:100DF0002078C04DC00749D06868C0F38100012841
:100E000007D06868C0F38100022809D16868C00370
:100E100006D52868800339D560680028E7D035E01A
:100E20006068B0F5803F0BD010B1B0F5A02F11D0A5
:100E3000286820F480302860286820F4802002E0B0
:100E4000286840F480302860606890B1FFF7C8FDE2
:100E500006460AE0286840F480202860F0E700BFDA
:100E6000FFF7BEFD801B642873D828688003F7D580
:100E70000CE0FFF7B5FD064605E000BFFFF7B0FD4B
:100E8000801B6428F0D828688003F7D420789A4E15
:100E900080074FF001094FF0000839D5686810F05D
:100EA0000C0F07D06868C0F38100022809D1686878
:100EB000C00306D42868800714D52069012808D10A
:100EC00010E02069B0B1C6F80090FFF789FD074631
:100ED00005E00AE1FFF784FDC01B0228C4D828689A
:100EE0008007F7D52868616920F0F80040EAC10062
:100EF00028600DE0C6F80080FFF772FD074604E0A9
:100F0000FFF76EFDC01B022823D828688007F7D49E
:100F1000207800072CD57948A169D9B1C0F8009094
:100F2000FFF75EFD074604E0FFF75AFDC01B0228ED
:100F30000FD8686A8007F7D571484FF4FA510068F6
:100F4000B0FBF1F0009000BF0098411E0091FAD272
:100F50000EE080E0C0F80080FFF742FD074604E0A5
:100F6000FFF73EFDC01B022875D8686A8007F7D4DA
:100F70002078400760D5E8690027C00008D4E869F8
:100F800040F08050E861E869012700F0805000904F
:100F90005C480168C90513D40168834641F4807137
:100FA0000160FFF71DFD824606E000BFFFF718FD58
:100FB000A0EB0A0064284ED8DBF80000C005F5D588
:100FC000E06801280AD008B1052813D0286A20F06B
:100FD00001002862286A20F0040002E0286A40F03C
:100FE00001002862E06841F2883B98B1FFF7F8FC05
:100FF00082460BE0286A40F004002862EEE700BF5A
:10100000FFF7EEFCA0EB0A0159455AD8286A800781
:10101000F6D50CE0FFF7E4FC824605E0FFF7E0FCC4
:10102000A0EB0A0159454CD8286A8007F6D41FB1B5
:10103000E86920F08050E861E06988B36968C1F32D
:101040008101022944D00228C6F8608004D0FFF74D
:10105000C7FC044638E034E0FFF7C2FC074604E072
:10106000FFF7BEFCC01B02282BD828688001F7D4EC
:10107000206AB0F5803F05D16868A16820F400308F
:1010800008436860D4E908010843696821F47411D1
:1010900008436860C6F86090FFF7A2FC044606E0CB
:1010A00025E000BFFFF79CFC001B022809D8286838
:1010B0008001F7D51BE000BFFFF792FC001B022860
:1010C00002D90320BDE8F88F28688001F4D40EE02F
:1010D0000128F7D06868226A00F48031914204D177
:1010E000616A00F47010884201D00120EAE7002014
:1010F000E8E7000000100240000042428004424243
:10110000200000200070004010B5401EB0F1807F2C
:1011100001D3012010BD4FF0E02460610F21601762
:1011200000F0C0FE0020A06107202061002010BD5B
:1011300070477047704770B50446006801694FF00A
:101140000005C943890715D4C168C943890711D46B
:10115000E91E016101202077206880698007204610
:1011600002D0FFF7E7FF04E000F098F8204600F017
:1011700096F8257720680169C943490717D4C168E3
:10118000C943490713D46FF004010161022020779D
:101190002068806910F4407F204602D0FFF7CAFF24
:1011A00004E000F07BF8204600F079F8257720680D
:1011B0000169C943090716D4C168C943090712D494
:1011C0006FF008010161042020772068C069800762
:1011D000204602D0FFF7AEFF04E000F05FF82046A3
:1011E00000F05DF8257720680169C943C90617D466
:1011F000C168C943C90613D46FF01001016108200A
:1012000020772068C06910F4407F204602D0FFF7A5
:1012100091FF04E000F042F8204600F040F8257706
:1012200020680169C943C90708D1C168C943C90712
:1012300004D1891E0161204600F032F8206801695E
:10124000C943090609D4C168C943090605D46FF02A
:10125000800101612046FFF76BFF20680169C943E7
:10126000490609D4C168C943490605D46FF0400155
:101270000161204600F015F820680169C94389061C
:101280000BD4C168C943890607D46FF020010161FE
:101290002046BDE87040FFF74CBF70BD70477047F7
:1012A00070477047704710F8391F407808437047FF
:1012B00070B5026804461068D168536910F00F0FCA
:1012C00050D003F0010501F4907635435DD0C2079C
:1012D00005D0CA0503D5E26B42F00102E263420782
:1012E00005D5DA0703D0E26B42F00202E26382071F
:1012F00005D5DA0703D0E26B42F00402E26302078D
:1013000005D5DA0703D0E26B42F00802E263E26B34
:10131000002A33D0800604D5880602D5204600F086
:1013200083FC20684069E16BC0F38010090700D49A
:1013300028B3204600F06AFC2068416949061AD5A6
:10134000416921F040014161606BA0B11B494163DB
:10135000606BFFF7F1F9002810D0606B416BBDE8BE
:1013600070400847830610D58B060ED52046BDE891
:10137000704000F059BC2046FFF794FF70BD204636
:10138000FFF790FF0020E06370BD030606D50B0653
:1013900004D52046BDE8704000F0EEBC4006F3D511
:1013A0004806F1D5D168204621F04001D1602021C6
:1013B00084F8391000F02FF970BD0000FD1B000803
:1013C00070B5040004D094F83900002510B106E08F
:1013D000012070BD84F83850204600F023F8242006
:1013E00084F839002068C16821F40051C1602046AA
:1013F00000F066FC2068016921F4904101612068D9
:10140000416921F02A0141612068C16841F400511D
:10141000C160E563202084F8390084F83A00002098
:1014200070BD000030B585B0002400940194029492
:10143000039400681B49884231D1C168C16841F0FA
:101440002001C1601848816941F48041816181694E
:1014500001F480410491816941F004018161806956
:10146000124D00F0040004904FF400700090022030
:1014700001900320039069462846FFF7BBF9281521
:10148000CDE90004694628460294FFF7B3F900222B
:1014900011462520FFF714FB2520FFF703FB05B0BD
:1014A00030BD00000038014000100240000801403B
:1014B00090F83A30202B22D1F9B1F2B190F83830BF
:1014C000012B1CD081628285C2850021C16322224A
:1014D00080F83A2080F838100168CA6842F48072B7
:1014E000CA6001684A6942F001024A610068C16845
:1014F00041F02001C16000207047012070470220A8
:101500007047000030B400680E49884213D10E4A7B
:1015100001230E491078C8280CD20C7854B90C4C11
:101520000C4D24792C540D2C02D0401C107002E07C
:1015300000222A540B700649012230BC091D0648BE
:10154000FFF7B6BF00380140110000201000002056
:1015500000000020C40400208C0500202DE9F84381
:10156000044690F839001F4616460D46202850D1F3
:10157000A5B19EB194F8380001284AD0012084F822
:1015800038004FF00008C4F83C80212084F839006E
:10159000FFF726FAA6848146E68426E00120BDE80E
:1015A000F883E08C401EE084A0684B46B0F5805F75
:1015B0004FF000024FF080012046009703D000F06A
:1015C0000CFCE8B90DE000F008FCC8B928882168D7
:1015D000C0F308004860206908B16D1C05E0AD1C2F
:1015E00003E0216815F8010B4860E08C0028D8D191
:1015F0004B46002240212046009700F0EEFB08B148
:101600000320CCE7202084F8390084F838800020BB
:10161000C5E70220C3E77047FEE700003EB50021A2
:101620001148009101910F4A02910260816001739B
:10163000017501244FF460220461C2614160FEF72C
:10164000D9FF08B1FEF756FF1020CDE900040720AE
:10165000029069460448FEF74FFF002801D0FEF7CC
:1016600049FF3EBD00240140140400202DE9F04351
:1016700085B000263048009601960296039681694F
:1016800041F020018161816901F0200104918169AB
:1016900041F004018161816901F0040104918169D3
:1016A00041F0080181618069DFF8908000F0080056
:1016B00040F201140490002221464046FFF78AF9C7
:1016C000012202214046FFF785F9DFF874900122DC
:1016D00047F6C0414846FFF77DF9009403250124F1
:1016E00002270395CDE9014769464046FFF782F896
:1016F000CDE9007469464046CDE90245FFF77AF826
:101700000095CDE9016469464846FFF773F84FF448
:10171000F840CDE9000469464846CDE90245FFF7A7
:1017200069F8C02003958DE8910069464846FFF7A7
:1017300061F805B0BDE8F0830010024000080140E8
:10174000000C01400C4810B50A4901604FF4E1312A
:101750004160002181600C22C160C0E904128161F6
:10176000C161FFF72DFE002803D0BDE81040FEF751
:10177000C1BE10BD003801408C050020FEE7704757
:1017800070B5002404F1B000C0B2002100F07CF973
:101790000021102000F078F90021084600F074F9CB
:1017A00000250121002000F06FF96D1CEDB2802DA5
:1017B000F7D3641CE4B2042CE4D370BD2DE9F05FD0
:1017C0001F4616468A4683460025DFF89C90DDF8C2
:1017D000288031E00AEB0500C1B2584600F09AF9C2
:1017E000002425E0102F02D0182F0BD01EE01F4838
:1017F00005FB060104EB08100844A0F5805090F8A2
:10180000000E10E0B8F1200F1BD005FB0691B8F1D7
:101810002E0F20D008EBC80004EB80000844A0F590
:10182000805090F86409012100F02EF9641CA4B2E4
:10183000B442D7D36D1CADB2B5EBD70FCAD3BDE858
:10184000F09F05FB069104F590600844A0F58050D8
:1018500090F8800BE7E704F5CF600844A0F58050CE
:1018600090F8380BDFE70000CC300008DC2A0008D5
:101870002DE9F0471F4614468846814600252BE097
:1018800008EB0500C1B2484600F044F900261FE00D
:10189000102C04D0182C08D0202C0ED016E01148A3
:1018A00006EB471105FB04000CE00F4807EBC701EE
:1018B00005FB040006EBC10104E00C4806EBC71170
:1018C00005FB0400405C012100F0DEF8761CB6B296
:1018D000A642DDD36D1CADB2B5EBD40FD0D3BDE8BD
:1018E000F087000014250008F42500085C27000894
:1018F0002DE9F843984691460D4606460024089F78
:1019000014E000903019C0B243464A462946FFF71A
:1019100055FF4C4430197F1C7F2807D9002605EB62
:10192000D800C5B23446072D00D3002538780028EA
:10193000E7D1BDE8F88300002DE9F05F8346DE08BB
:10194000DDF8289017468A46580700D0761C0024F8
:1019500017E000BF0AEB0400C1B2584600F0DAF805
:10196000002504FB07F808E009EB050118F8010061
:10197000012100F089F86D1CEDB2BD42F4D3641C66
:10198000E4B2B442E6D3BDE8F09F000070B5012296
:101990003C4D140321462846FFF71CF86420FEF74F
:1019A00017FF002221462846FFF714F86420FEF7AF
:1019B0000FFF012221462846FFF70CF86420FEF7AE
:1019C00007FF0021AE2000F05FF80021402000F06A
:1019D0005BF80021B02000F057F80021C82000F08B
:1019E00053F80021812000F04FF80021FF2000F083
:1019F0004BF80021A12000F047F80021A62000F0BC
:101A000043F80021A82000F03FF800211F2000F03B
:101A10003BF80021D32000F037F80021084600F001
:101A200033F80021D52000F02FF80021F02000F03D
:101A30002BF80021D92000F027F80021222000F007
:101A400023F80021DA2000F01FF80021022000F026
:101A50001BF80021DB2000F017F80021492000F0DE
:101A600013F800218D2000F00FF80021142000F061
:101A70000BF80021AF2000F007F8BDE87040FFF739
:101A80007FBE0000000C01402DE9F0470646204CC7
:101A90004FF4006009B1012200E000220146204617
:101AA000FEF798FF4FF48069002249462046FEF772
:101AB00091FF4FF40057002239462046FEF78AFF77
:101AC00000254FF48048002239462046FEF782FF69
:101AD000300601D5012200E0002241462046FEF7F3
:101AE00079FF012239462046FEF774FF70066D1C0F
:101AF000060EEDB2082DE6D3012249462046FEF738
:101B000069FF39462046BDE8F0470022FEF762BF74
:101B1000000C014010B5044601F0B70040F0B000E1
:101B20000021FFF7B1FF102040EA14100021FFF759
:101B3000ABFF04F00F00BDE810400021FFF7A4BF89
:101B400070477047FEF752BF30B593B02821684602
:101B5000FEF7F1FA14210AA8FEF7EDFA002401209D
:101B60000F9410941194010412948DE813000490C2
:101B70004FF4E010CDE90810022507956846FFF7FD
:101B800033F90F20CDE90A056802CDE90C400221A6
:101B90000AA80E94FFF73CF8A80311900F950FA820
:101BA000FEF7C0FF13B030BD0D48016841F00101E0
:101BB000016041680B4A1140416001680A4A1140C6
:101BC0000160016821F480210160416821F4FE0177
:101BD00041604FF41F0181600449C00308607047F1
:101BE000001002400000FFF8FFFFF6FE08ED00E0E5
:101BF0000148FFF7A0BA00004404002010B5406A75
:101C00000021C185C184FFF74DFB10BD0168CA6882
:101C100022F49072CA6001684A6922F001024A61A6
:101C2000202180F83A10704710B590F83A10222918
:101C300001D0022010BD8168B1F5805F11D001692B
:101C4000002901681FD0496801F07F03816A4A1C9E
:101C500082620B70C18D491E0904090CC18518D020
:101C60002BE00269816A002A0268526805D0D2B26C
:101C70000A80816A491C8162ECE7C2F308020A808B
:101C8000816A891CF7E74A68816A4B1C83620A7083
:101C9000E0E70168CA6822F02002CA600168CA68E9
:101CA00022F48072CA6001684A6922F001024A6126
:101CB000202180F83A10FFF725FC002010BD00001D
:101CC0002DE9F041044600680169E26821F44051C1
:101CD000114301612169A0680843616908432168D3
:101CE000CA6841F20C639A430243CA6020684169A2
:101CF000A26921F44071114341611E4920686425A5
:101D00003226884202D1FFF729F801E0FFF716F8E2
:101D100000EBC00101EB001160686FF01807800054
:101D2000B1FBF0F2B2FBF5F2B1FBF0F37A4303EB57
:101D30008202B1FBF0F306EB0212B2FBF5F2B3FB49
:101D4000F5F302F0F00202EB0312B1FBF0F3B1FB8A
:101D5000F0F0B0FBF5F0784303EB800006EB0010E9
:101D6000B0FBF5F0216800F00F0010448860BDE87A
:101D7000F08100000038014090F83910212901D08D
:101D8000022070478168B1F5805F016A0BD04A1C60
:101D90000262026809785160C18C491E0904090C6D
:101DA000C1840ED017E009880268C1F308015160B0
:101DB00001690029016A02D0491C0162ECE7891C13
:101DC000FBE70168CA6822F08002CA600068C16847
:101DD00041F04001C160002070472DE9F041984674
:101DE00017460E460446069D1DE0681C1BD02DB10B
:101DF000FEF7F6FDA0EB0800A84214D92068C168E0
:101E000021F4D071C1602068416921F00101416174
:101E1000202084F8390084F83A00002084F8380043
:101E20000320BDE8F0812068006836EA000004D095
:101E30000020B842D9D00020F3E70120F9E70000E4
:101E400010B50448FFF734FABDE810400148FFF729
:101E50002ABA00008C050020FEE700000FB4054BF5
:101E600010B503A9044A029800F040F810BC5DF8D0
:101E700014FB000039220008240000200FB4084B96
:101E800010B504A902AA039800F030F8044602A98C
:101E9000002000F0CCF9204610BC5DF814FB0000D7
:101EA0002F2200080907090E002804DB00F1E020BA
:101EB00080F80014704700F00F0000F1E02080F877
:101EC000141D7047004870472800002002E008C831
:101ED000121F08C1002AFAD170477047002001E0A4
:101EE00001C1121F002AFBD1704700002DE9FF4FEE
:101EF0008BB088460546002606E025280BD0DDE994
:101F00000D1290476D1C761C28780028F5D10FB073
:101F10003046BDE8F08F0024A146A2460122AE491A
:101F200000E0044315F8013F203B02FA03F00842A9
:101F3000F7D128782A2810D06FF02F022878A0F146
:101F40003001092915D809EB890102EB410144F060
:101F5000020400EB01096D1CF0E758F8041B5FEA6E
:101F6000010903D544F40054C9F1000944F0020406
:101F70006D1C28782E2817D115F8010F44F00404A1
:101F80002A280ED06FF02F022878A0F130010929FD
:101F90000AD80AEB8A0102EB410100EB010A6D1C31
:101FA000F2E758F804AB6D1C28786C280FD006DCDB
:101FB0004C2817D068280DD06A2814D104E0742862
:101FC00010D07A280FD10DE044F400140AE044F454
:101FD000801401E044F440146978814202D104F590
:101FE00080146D1C6D1C2878692865D006DC0028DB
:101FF0008DD0632827D0642806D15DE06E2808D0F4
:1020000073282AD0752877D0DDE90D129047761C09
:10201000E0E0C4F30250022809D003280DD0D8F81C
:10202000001004280DD00E6008F10408D2E0D8F8A2
:102030000010F217C1E90062F6E7D8F800100E8030
:10204000F2E70E70F0E718F8041B8DF8001000207E
:102050008DF80100EB46012003E058F804BB4FF077
:10206000FF3061074FF0000701D40AE07F1C57459D
:102070000DDA8742FADB1BF807100029F6D106E0DB
:102080007F1C8742FCDB1BF807100029F8D1DDE933
:102090000D23A9EB07008146214600F0B1F830443A
:1020A000C61904E0DDE90D121BF8010B90477F1EF5
:1020B000F8D22146484688E058F8040BC4F3025190
:1020C0004FF00A0B032900D100B2042900D140B21D
:1020D000002802DA40422D2102E0210505D52B21FE
:1020E0008DF82410012104E006E0E10710D0202142
:1020F000F6E708AF089113E058F8040BC4F3025157
:102100004FF00A0B032900D180B2042900D1C0B2DC
:102110000021EEE75946FEF726F8303107F8011D99
:102120000028F7D1ADEB070000F1200B600702D5C6
:1021300024F4803401E04FF0010ADA4502DDAAEB15
:102140000B0000E00020824600EB0B0108980144E0
:10215000A9EB01000A90E00306D4DDE90D23214636
:102160000A9800F04DF806444FF0000908E009A96C
:1021700011F80900DDE90D12904709F10109761CFB
:1021800008998945F3DBE0030CD5DDE90D232146F1
:102190000A9800F035F8064404E0DDE90D1230201D
:1021A0009047761CBAF10001AAF1010AF5DC05E0BE
:1021B000DDE90D1217F8010B9047761CBBF1000109
:1021C000ABF1010BF4DC0A982146DDE90D2300F0A8
:1021D00005F806446D1C97E6092801002DE9F04139
:1021E000044600251E461746880404D405E03946F7
:1021F0002020B0476D1C641EF9D52846BDE8F0814B
:102200002DE9F041044600251E469046C80301D53D
:10221000302700E02027880404D505E041463846F1
:10222000B0476D1C641EF9D52846BDE8F0810A68E8
:10223000531C0B601070704713B50A2301226946C6
:102240000248FFF78BF900981CBD00008C050020A8
:1022500008B5FEF7D3FBFFF777FCFFF707FAFFF7A8
:1022600071FAFFF7DBF9FFF791FB75482023009027
:102270001A4600213020FFF75FFB4FF47A70FEF71B
:1022800022F9FFF77DFA0023102219461846FFF7BE
:10229000EFFA0223102219460020FFF7E9FA012382
:1022A000102200211420FFF7E3FA03231022022159
:1022B0001420FFF7DDFA0423102200212820FFF765
:1022C000D7FA0423102202212820FFF7D1FA06238F
:1022D000102200215F20FFF7CBFA052310220221F4
:1022E0005F20FFF7C5FA012256495748FFF7E0F88B
:1022F000584E544CDFF85481DFF854B100254FF4A8
:10230000FA7A06F1C807241F0120FEF7DCF8E0681E
:10231000401CE0605045F7D34E494E48C831E56057
:10232000FEF76AF840BB787800903B787278317895
:1023300049A0FFF793FD4748737832784EA1C8381B
:10234000FFF79CFDDFF80C911023A9F1C8090822C2
:1023500000213C20CDF80090FFF7CAFA7B783A784C
:1023600045A14846FFF78AFD1023082202213C20A0
:10237000CDF80090FFF7BCFA98F8001079B3404808
:1023800088F80050324905703EA0FFF767FD3F4BCB
:10239000A5705846A178425C0A2A07D00D2A05D0BC
:1023A000202A03D05A54491CA170F3E7CAB2DFF8BF
:1023B000DCC09D54491C61700CF1C80CC9B2425C70
:1023C0000A2A0DD00D2A0BD0202A09D042B1E37879
:1023D0000CF803205B1CE370491C6170EEE70BE016
:1023E000E0780CF800502948FDF7B0FEE08027485F
:1023F000C830FDF7ABFE20813078E188884203D2F7
:1024000038782189884206D30120207002460102D3
:102410001F48FEF7DFFA3178E0888142BFF474AFDD
:10242000387821898842F9D2207800283FF46CAFAF
:10243000257000224FF480711548FEF7CBFA63E750
:1024400094240008040000208C05002010000020C7
:10245000C4040020F4000020CEC2B6C8A3BA25648C
:102460002E2564A1E620CAAAB6C8A3BA25642E25E3
:102470006425250D0A00000025642E253164000026
:102480001100002072783D25730A000084020020AC
:1024900000080140000000000000000000C0E0F063
:1024A000B8F8F8F8F8F8F8B8B0E0C080000000001C
:1024B00000000000000000F8F8F8F800FFFFFFFF40
:1024C000FFFFFFFFFFFFFFFFFFFFFFFF00F8F8F830
:1024D000F80000000000003F7F7F3F00FFFFFFFF8C
:1024E000FFFFFFFFFFFFFFFFFFFFFFFF003F7F7FBB
:1024F0003F0000000000000000000000010303FF97
:10250000FFFF7F03037FFFFF7F0303030000000043
:10251000000000001060028C0000FE9292929292E5
:10252000FE00000004047E01407E42427E427E4264
:10253000427E40000000FC242424FC252624FC24A8
:102540002424040040308F80844C55252525554C8B
:10255000808080001060028C00FE92929292929293
:10256000FE00000004047E014448507F40407F503C
:10257000484440000000FC242424FC252624FC249C
:102580002424040040308F80844C55252525554C4B
:1025900080808000000000000000000000000000BB
:1025A00000000000000036360000000000000000BF
:1025B0000000000000007C82827C00804020100827
:1025C0000402000000201008040201003E41413EC8
:1025D00000000000060909E6F80C040202020202EB
:1025E000041E0000000000071F3020404040404013
:1025F00020100000000000F09080FE84808000C069
:10260000382EE06020A0E02020E00000008C8380D5
:102610004040FF2010924120180601C0780F0100B1
:10262000F0FF00000000010000007F000020100803
:1026300004020110107030301F010000000808F87B
:1026400008080808F808888082FCB08080E09C8C2C
:10265000C4800000000000FF11111111FF10901044
:10266000101010FF3FD010101018100000000407C9
:10267000020202017F414020100806010001061CF1
:1026800030302000000000F80888080808C88808D2
:1026900008080808C8880808FC000000000000FFBF
:1026A0000000C1360E73E00001C23C1C73C0000084
:1026B000FF0000000000007F000100000000000299
:1026C00001000000002120703F0000000000001009
:1026D00010101010101010F0F01010101010101832
:1026E000100000000000000000000000000000FFDB
:1026F000FF000000000000000000000000101010AB
:10270000101010101010101F1F10101010101010AB
:1027100018100000000010101008F8080C0800083D
:10272000F808080808080808F8000000000101C1BE
:10273000710FFF091131090E0B090909F90909097E
:102740008F0800000004030000787F000020202193
:10275000212121213F2121212131200000000000E1
:102760000000000000000000000000000080F87879
:102770001000000000000000000000000000000841
:10278000488808080CCCFC1C000040309E9791083B
:1027900008086C3C1C180800000000000000000045
:1027A0000080C1771E1F79F000000080F03F1F30CD
:1027B000C0800000000000000000000000000402D3
:1027C00003010000000010100804060300000000D0
:1027D00000030F1E1C1C1818101000000000000041
:1027E000000040C0C080000000000080C070702069
:1027F00000000000000000000000000000000000D9
:1028000080C040E0E141000206FEFB018040000E76
:10281000FE02828181FF0F00000000000000808026
:10282000C0C0404FF88080800C1F0F03010000FEE5
:10283000FF00000103010000000000000000000094
:1028400000000000000000010103030206060C0C5A
:102850001C1C1C1C1C1C0C0C0C04000000000000A8
:102860000000000000E0E040000000000010F0F078
:102870000000000000000000000000000000000058
:1028800000C070F8CF03010000C4C4442424FFFF3B
:1028900022221233F3732000000000000000040223
:1028A000010000E0FF0000000010172464E2FF8731
:1028B000020202020300000000000000000000000D
:1028C0000000003F1F000008080C0406030100017F
:1028D00003070E0C1C1C181808080000000000005C
:1028E00000000000C0C04040404040C0C040202028
:1028F000202070E0E0C000000000000000000000A8
:102900000000000000FF0000202020FFFF1010103A
:1029100000000001FFFF00000000000000000000B8
:1029200000000080FC3F0004040404FFFF060602D0
:1029300002000000FFFF0000000000000000000097
:1029400000100C07010000000000000F0100000053
:1029500000040C1C3F1F00000000000000000000ED
:102960000818706000008000F8F0101010101010AF
:1029700010101010F81000000000000000000818EF
:1029800070200080700F0000FFFF4242424242422E
:1029900042424242FF0000000000000000004040B0
:1029A000C0E0FC070000FCF8090808F8F80808086F
:1029B000F8F8080808F8FC08000000000000000013
:1029C0003F3F002020203F3F2020203F3F2020206D
:1029D0003F3F2020203F3F2030300000000000001B
:1029E00000E0C0404040404040C040445878504023
:1029F00040C0404040406070604000000000000067
:102A000000FFFF080808080808FFFF090808080871
:102A100008FFFF0908080C0C080000000000000077
:102A2000F07F030000000808081B6BC909090909A9
:102A300089EB7B3C18000000000000000040300ED5
:102A40000340404040202020101018080D07060FBA
:102A50000D181810303030703000000000000000F9
:102A60000000000000000000000000000000000066
:102A70000000000000000000000000000000000056
:102A80000000000000000000000000000000000046
:102A90000000000000000000000000000000000036
:102AA0000C1E1E1E000000000000000000000000C0
:102AB0000000000000000000000000000000000016
:102AC0000C1E1E0E000000000000000000000000B0
:102AD00000000000000000000000000000000000F6
:102AE000000000000000000000000000000000F8EE
:102AF00000000000000000330000000000100C0285
:102B0000100C020000000000000000000040C0782F
:102B100040C0780000043F04043F0400007088882F
:102B2000FC08300000182020FF211E00F008F08073
:102B30006018000000310C031E211E0000F0088800
:102B4000700000001E21232C1927211000120E00F6
:102B5000000000000000000000000000000000E095
:102B600018040200000000071820400000020418AA
:102B7000E00000000040201807000000404080F006
:102B8000804040000202010F01020200000000002C
:102B9000E0000000000101010F0101010000000040
:102BA0000000000000907000000000000000000025
:102BB000000000000001010101010100000000000F
:102BC00000000000003030000000000000000000A5
:102BD000C0380400006018070000000000E0100882
:102BE0000810E000000F102020100F00000010104F
:102BF000F8000000000020203F202000007008089E
:102C00000808F00000302824222130000030080895
:102C1000088870000018202121221C00000080403C
:102C200030F8000000060524243F242400F888889A
:102C3000880808000019202020110E0000E01088EC
:102C400088900000000F112020201F0000180808A5
:102C5000886818000000003E01000000007088082D
:102C600008887000001C222121221C0000F00808A6
:102C70000810E0000001122222110F00000000C025
:102C8000C0000000000000303000000000000080A4
:102C900000000000000000E0000000000000804094
:102CA00020100800000102040810200000404040ED
:102CB0004040400000020202020202000008102010
:102CC0004080000000201008040201000070480845
:102CD000088870000000003037000000C030C828AD
:102CE000E810E000071827282F2817000000C03838
:102CF000E0000000203C23020227382008F88888E2
:102D000088700000203F202020110E00C0300808ED
:102D100008083800071820202010080008F80808C4
:102D20000810E000203F202020100F0008F88888BD
:102D3000E8081000203F20202320180008F8888889
:102D4000E8081000203F200003000000C030080801
:102D50000838000007182020221E020008F808008A
:102D60000008F808203F210101213F20000808F851
:102D7000080800000020203F202000000000080874
:102D8000F8080800C08080807F00000008F888C034
:102D900028180800203F20012638200008F80800E5
:102DA00000000000203F20202020300008F8F8001C
:102DB000F8F80800203F013E013F200008F830C02D
:102DC0000008F808203F200007183F00E01008081E
:102DD0000810E0000F10202020100F0008F808084D
:102DE0000808F000203F210101010000E010080860
:102DF0000810E0000F10282830504F0008F888888D
:102E000088887000203F2000030C30200070880864
:102E1000080838000038202121221C00180808F872
:102E2000080818000000203F2000000008F80800F3
:102E30000008F808001F202020201F0008788800C4
:102E400000C83808000007380E01000008F800F834
:102E500000F8080000033E013E03000008186880E7
:102E60008068180820302C03032C30200838C80054
:102E7000C83808000000203F2000000010080808A3
:102E8000C83808002038262120201800000000FE45
:102E9000020202000000007F40404000000438C0F1
:102EA00000000000000000010638C000000202021D
:102EB000FE000000004040407F00000000000402CF
:102EC00002040000000000000000000000000000FC
:102ED00000000000808080808080808000020204EA
:102EE00000000000000000000000000000008080E2
:102EF0008000000000192424123F200010F0008000
:102F000080000000003F112020110E000000008012
:102F100080800000000E1120202011000000808021
:102F20008090F000001F202020103F2000008080B3
:102F300080800000001F242424241700008080E0EB
:102F4000909020000020203F202000000000808082
:102F500080808000006B94949493600010F0008057
:102F600080800000203F210000203F2000809898B2
:102F7000000000000020203F202000000000008012
:102F80009898000000C08080807F000010F0000052
:102F900080808000203F240629302000001010F897
:102FA000000000000020203F202000008080808062
:102FB00080808000203F20003F20003F80800080F4
:102FC00080800000203F210000203F200000808002
:102FD00080800000001F202020201F0080800080B3
:102FE0008000000080FF912020110E000000008072
:102FF00080008000000E11202091FF8080808000E2
:103000008080800020203F2120000100000080807F
:10301000808080000033242424241900008080E074
:10302000808000000000001F202010008080000031
:1030300000808000001F202020103F208080800022
:103040008080800000030C300C0300008080008032
:1030500080008080010E300C0738060100808080DF
:10306000008080000020310E2E3120008080800002
:1030700000808080008186781806010000808080B2
:10308000808080000021302C2221300000000000D0
:1030900000FC020200000000013E40400000000071
:1030A000FF00000000000000FF0000000202FC0022
:1030B0000000000040403E0100000000000201024C
:1030C00002040200000000000000000000000000F8
:1030D00000000000000000000000000000000000F0
:1030E00000000000000000000000000000000000E0
:1030F000000000000000808080800000F0FC0E02D4
:1031000001018080C060713F0001010101010100E7
:1031100000000000000000000000000080800000AF
:10312000000000028281F1FF8780C04000000101A1
:10313000010101010000000000000000008080800B
:103140008000000000008283C1C0A0B0998F0600FB
:103150000003030100000000000101010000C08025
:10316000808080808080800000C080888484868504
:1031700045653C1800000000000000000000000051
:1031800000000000000000000080800000203038B7
:10319000181416F2F91710100000000000000001CA
:1031A000010000000000000000000000000000001E
:1031B0000080880C0A0B098999F171010000010156
:1031C00001010101000000000000000000000000FB
:1031D0000000000000E0988CC42213119190D06090
:1031E00000000001010101010100000000000000D9
:1031F0000000000000000000000001010181C16129
:10320000190D05030000000000010100000000008E
:103210000000000000808080800000000000C6EFF9
:103220002D191018A4E7030000000001010101019D
:10323000000000000000000000008080808000008E
:1032400000000C1E131110C8FC3F07000000000016
:10325000000000010100000000000000000000006C
:103260000000000000008C8C000000000000000046
:10327000000001010000000000000000000000004C
:10328000000000000000000000000000000000003E
:10329000000000000000020707030000000000001B
:1032A00000000000000000000102030406070809F6
:1032B0000000000001020304004040404040404044
:1032C00040404141414141404040404040404040F9
:1032D000404040404040404040050202020202029D
:1032E00002020202020202020220202020202020EC
:1032F0002020200202020202020290909090909000
:1033000010101010101010101010101010101010BD
:103310001010101002020202020288888888888831
:10332000080808080808080808080808080808081D
:10333000080808080202020240000000B932000832
:1033400060330008000000202C000000CC1E0008A4
:103350008C3300082C000020A4090000DC1E0008AB
:1033600000000000000046006400000000000000B3
:10337000000000000100000010000000000000003C
:0C3380000024F400000000000000000029
:04000005080000ED02
:00000001FF
